:020000040800F2
:100000008007002005010008BF2B00087D240008A0
:10001000BD2B00080D060008453000080000000058
:10002000000000000000000000000000C32B0008DA
:100030000F06000800000000C12B0008C52B0008B7
:100040001F0100081F0100081F0100081F01000810
:100050001F0100081F0100081F0100081F01000800
:100060001F0100081F0100081F0100081F010008F0
:100070001F0100081F0100081F0100081F010008E0
:100080001F0100081F010008310500081F010008BA
:100090001F0100081F0100081F0100081F010008C0
:1000A0001F0100081F0100081F0100081F010008B0
:1000B0001F010008352C00081F0100081F0100085F
:1000C0001F0100081F0100081F0100081F01000890
:1000D0001F0100081F0100081D3000081F01000853
:1000E0001F0100081F0100081F010008DFF810D0E1
:1000F00000F0FCF900480047B9330008AFF3008076
:10010000800700200648804706480047FEE7FEE7D4
:10011000FEE7FEE7FEE7FEE7FEE7FEE7FEE7FEE7B7
:10012000312C0008ED000008202A04DB203A21FAD7
:1001300002F00021704721FA02F3D040C2F1200200
:100140009140084319467047D2B201E000F8012BF4
:10015000491EFBD270470022F6E710B513460A4647
:1001600004461946FFF7F0FF204610BD034611F87C
:10017000012B00F8012B002AF9D11846704780EABC
:10018000010210B502F00043400022D04A001FD007
:10019000010E01EB1261C0F35600C2F3560240F4A7
:1001A000000042F40002A0FB022000047F39140486
:1001B00000D0401C50EA124001D44000491EC2B297
:1001C0000C0604EBD010401C4008802A02D003E04B
:1001D000002010BD20F00100002900DA00201843A3
:1001E00010BD2DE9FE4F81EA030404F0004421F024
:1001F000004100944FF0000B23F0004350EA01044B
:100200005ED052EA03045BD0C3F30A54C1F30A552B
:100210002C44A4F2F3340194A0FB0254C1F3130163
:1002200041F48011C3F3130343F4801301FB024430
:1002300000FB034E840A970A44EA815447EA835735
:10024000A4FB076802958D0A05FB07854FEA932CEE
:1002500004FB0C542705029D4FEA065847EA16375F
:10026000B5EB08056EEB070C870E920E47EA811777
:1002700042EA8312A7FB0201B6EB0B0164EB000418
:100280002B0D43EA0C335E1844EB1C50DA46514602
:10029000E7FB0201C5F313044FEA0B3343EA14539F
:1002A0004FEA0432019C43EA0603A4F10C040294D1
:1002B000009CCDE900B400F0CAF803B0BDE8F08FAF
:1002C00000200146F9E770B521F0004303430CD04C
:1002D000C1F30A550024D5EB040564EB0403D617DB
:1002E000AD1AB34102DB0020014670BD201841EB7E
:1002F000025170BD0EB5C10F80EAE0700844CA0714
:10030000002140F233438DE80E000A460B4600F010
:100310009EF803B000BD0EB540F2334102910021BA
:10032000CDE900110A460B4600F091F803B000BD7C
:1003300000F0004220F00040C10DC0F3160040F470
:1003400000007F2901DA00207047962903DCC1F103
:100350009601C84001E096398840002AF4D0404216
:10036000704720F00040C10DC0F3160040F40000BB
:100370007F2901DA00207047962903DCC1F196013C
:10038000C840704796398840704701F0004330B448
:1003900021F0004150EA010206D00A0DA2F5607278
:1003A000C1F31301002A02DC30BC00207047440F67
:1003B00044EAC104C100E01830BC00EBC250AFF306
:1003C00000800029A8BF7047401C490008BF20F0EA
:1003D0000100704710B4B0FA80FC00FA0CF050EA4B
:1003E000010404BF10BC704749B1CCF1200421FACC
:1003F00004F411FA0CF118BF012121430843A3EBC7
:100400000C01CB1D4FEA00614FEA102042BF0020D3
:1004100010BC704700EBC35010440029A4BF10BCAF
:100420007047401C490008BF20F0010010BC704715
:1004300010B5141E73F1000408DA401C41F10001EC
:1004400092185B411A4301D120F0010010BD2DE943
:10045000F04D92469B4611B1B1FA81F202E0B0FA3A
:1004600080F22032904600F053F804460F4640EAEE
:100470000A0041EA0B0153465A46084313D011467D
:1004800053EA010019D0C8F140025046FFF74CFE74
:1004900005460E4650465946424600F039F8084394
:1004A00005D0012004E020463946BDE8F08D00204B
:1004B000054346EAE0762C4337430A986305E40A8D
:1004C000A0EB08000022FD0A44EA47540A3002D596
:1004D00000200146E9E7010510196941DDE90845F9
:1004E00000196941BDE8F04DA2E70000064C074D38
:1004F00006E0E06840F0010394E8070098471034F4
:10050000AC42F6D3FFF7F6FD9C370008BC37000875
:10051000202A04DB203A00FA02F1002070479140C3
:10052000C2F1200320FA03F3194390407047000002
:1005300010B5054800F0EDF804490880BDE810400A
:10054000014800F0E9B800009000002010000020F1
:1005500070B5044600688168C943C9071CD1816829
:1005600021F00101816000F0BDFB05460FE000BFF6
:1005700000F0B8FB401B022809D9A06A40F0100027
:10058000A062E06A40F00100E062012070BD2068D6
:100590008068C043C007EBD0002070BDF8B50026CE
:1005A0000446009600688168C943C90728D081685D
:1005B00041F001018160134813490068B0FBF1F07C
:1005C00000E0401E00900028FBD100F08BFB0546A8
:1005D00011E000BF00F086FB401B02280BD9A06A87
:1005E00040F01000A062E06A40F00100E06284F890
:1005F00024600120F8BD20688068C043C007E9D1AD
:100600000020F8BD8C00002040420F00FEE770473C
:1006100070470000F8B50024009490F82420254687
:10062000012A12D0012280F824204A681F23072AB9
:100630000DD20668776B521E02EB820293409F43F5
:100640000B6893401F43776319E00220F8BD0668EA
:100650000D2A0AD2376BD21F02EB820293409F43CE
:100660000B6893401F43376309E0F76A0D3A02EBCA
:10067000820293409F430B6893401F43F7620A68CE
:10068000072306680A2A0AD3F7680A3A02EB4202ED
:1006900093409F438B6893401F43F76008E037699E
:1006A00002EB420293409F438B6893401F433761A4
:1006B0000A68102A01D0112A20D1124B02689A42EE
:1006C00017D193681B0219D4936843F40003936015
:1006D0000968102912D10C490C4A0968B1FBF2F1E2
:1006E00001EB8101490000E0491E00910029FBD186
:1006F00004E0816A41F020018162012480F82450E5
:100700002046F8BD002401408C00002040420F002C
:1007100070470068C06C704710B5044600684168B7
:10072000890626D50168890723D5A16AC90603D49D
:10073000A16A41F40071A1628168C1F342410729B5
:1007400010D1217B71B9416821F020014160A06A7C
:1007500020F48070A062A06AC00403D4A06A40F0B4
:100760000100A0622046FFF7D3FF21686FF012005E
:1007700008602068416809062ED5016849072BD515
:10078000A16AC90603D4A16A41F40051A16281683B
:10079000C1F30231072909D04168490515D48168A0
:1007A000C1F34241072910D1217B71B9416821F081
:1007B00080014160A06A20F48050A062A06AC00558
:1007C00003D4A06A40F00100A0622046FFF720FF9A
:1007D00021686FF00C0008602068416849060DD55B
:1007E0000068C0070AD0A06A40F48030A0622046AA
:1007F00000F094F821686FF00100086010BD00005F
:100800002DE9F0414FF0000704003D467ED0A06A7C
:10081000002628B9E66284F82460204600F080F8BB
:100820002046FFF795FEA16AC90600D420B1A06A50
:1008300040F01000A06269E0A16A21F4885141F003
:100840000201A1626268E169237B0A4347EA43012E
:100850000A43A1684FF48077B94209D0012907D033
:100860005FF0000194F814C0BCF1010F02D00AE05F
:100870003946F7E7F3B1A36A43F02003A362E36AC2
:1008800043F00103E3622368D3F804C02CF4694CFD
:100890004CEA010CC3F804C021688B68DFF870C013
:1008A00003EA0C0313438B60A168B9420BD0012902
:1008B00009D00CE0DFF85CC0A3690CEB43330B43B9
:1008C00043F40061DFE7218A0D05A5F58015216855
:1008D000CB6A23F470032B43CB62216889680E4BEB
:1008E0001940914208D1E662A16A21F0020141F06B
:1008F0000101A162BDE8F081A06A20F0020040F091
:100900001000A062E06A40F00100E0620120F1E71F
:10091000FDF7E1FF00E0FFFFFE0E1FFF7047000044
:1009200000B585B00021009101910291039100680A
:100930001249884220D11248816941F400718161D5
:10094000816901F400710491816941F004018161C0
:100950008069694600F004000490022000900320A2
:100960000190084800F0CEF800221146122000F055
:100970008FFE122000F07EFE05B000BD0024014075
:10098000001002400008014070B5044690F82400B1
:1009900001280DD0012084F824002046FFF7FEFD39
:1009A00002004FF0000005D084F82400104670BD0E
:1009B000022070BDA16A40F20123994341F4807185
:1009C000A1621F4D23681F49AB4218D10E6816F46F
:1009D000702F14D0A66A46F48016A6620E687605BB
:1009E00005D5A66A26F4005646F48056A662A66A85
:1009F000F6040AD5E66A26F00606E66206E0A66A6E
:100A000026F48016A6625E68E9E7E06284F82400B6
:100A10006FF00200186020688368C3F34243072B1D
:100A200005D1A84208D1096811F4702F04D081685B
:100A300041F480118160B9E7816841F4A001F9E7D0
:100A4000002801400424014010B590F82110002432
:100A5000022903D00421816301243DE001680A6872
:100A600022F00E020A6001680A6822F001020A60A0
:100A70001A4A0168914201D1012121E0174A14323A
:100A8000914201D110211BE0144A2832914201D138
:100A9000891515E0114A3C32914201D189140FE0C9
:100AA0000E4A5032914202D14FF4803108E00B4A95
:100AB0006432914202D14FF4801101E04FF0807115
:100AC000064A083A5160012180F82110002180F87F
:100AD0002010416B01B18847204610BD080002403C
:100AE00070B5044600F0FEF80546601C02D00448CC
:100AF0000078044400F0F6F8401BA042FAD370BD21
:100B0000800000202DE9F84FDFF8B891002409F1AA
:100B1000040A0AF1040B23460F270BF1040EC9E067
:100B20000125A5402A40AA427DD1674ED1F804C0D4
:100B3000ACEB0608B44532D014DCBCF1030F3AD05C
:100B400009DCBCF1000F2AD0BCF1010F1CD0BCF1B4
:100B5000020F31D11DE0BCF1110F17D0BCF1120F03
:100B60002AD119E0B8F5881F19D006DCB8F5803F06
:100B700015D0B8F5801F1FD111E0B8F5001F0ED0B9
:100B8000B8F5041F18D10AE0CB6815E0CB681B1D2F
:100B900012E0CB6808330FE0CB680C330CE08B68B5
:100BA0002BB1012B4FF0080303D0456104E004236F
:100BB00002E0056100E00023FF2A01D8064601E0BB
:100BC00000F104064FEA840501D9A5F12005D6F805
:100BD000008007FA05FC28EA0C0803FA05F548EA44
:100BE0000508C6F800804D68ED0062D5374DAE6946
:100BF00046F00106AE61AD6924F0030605F001057B
:100C00000095334D06EB050CDCF80850A607360FAF
:100C100007FA06F825EA0805DFF8B880404503D151
:100C20004FF0000817E044E0DFF8AC80404502D107
:100C30004FF001080FE0DFF8A480404502D14FF0EB
:100C4000020808E0DFF89880404502D14FF0030821
:100C500001E04FF0040808FA06F848EA0508CCF865
:100C600008804D68D9F80060ED034D4601D5164364
:100C700000E096432E604D68DAF80060AD035546FB
:100C800001D5164300E096432E604D68DBF8006006
:100C9000ED025D4601D5164300E096432E604D6897
:100CA000DEF80060AD02754601D5164300E09643BC
:100CB0002E60641C0D682A46E5407FF431AFBDE824
:100CC000F88F0000000401400000111000100240E5
:100CD0000000014000080140000C014000100140EC
:100CE0000014014001488068704700008000002027
:100CF00070B5040025D094F83D00002520B984F893
:100D00003C50204600F030FC242084F83D00206850
:100D1000016821F0010101602068016841F400418F
:100D200001602068016821F40041016000F0EEFDDF
:100D30004D4A6168914201D84C4900E04C498842D3
:100D400001D2012070BD4B492368B0FBF1F15E6810
:100D500026F03F060E435E606368934206D94FF467
:100D6000967359434FF47A73B1FBF3F12368491C2E
:100D70001E6A26F03F06314319626168914210D81D
:100D80004900401EB0FBF1F2521CC2F30B02042AD0
:100D900001D2042022E0B0FBF1F0401CC0F30B00B4
:100DA0001CE0A268F2B301EBC10303EB0116431E82
:100DB000B3FBF6F35B1C43F480431B0549D092B3AD
:100DC00001EBC10202EB0111401EB0FBF1F0401C2F
:100DD000C0F30B0040F4804040F400402168CA6931
:100DE0004CF6FF739A431043C861D4E907100143DE
:100DF0002068026822F0C00211430160D4E90301B7
:100E000001432068826848F2FF339A4311438160AE
:100E1000D4E9050108432168CA6822F0FF021043A3
:100E2000C86001E00EE016E02068016841F00101B1
:100E300001602564202084F83D00256384F83E503D
:100E4000002070BD01EB4106431EB3FBF6F35B1CB3
:100E5000B3E70120C2E701EB4101401EB0FBF1F016
:100E6000401CC0F30B00B7E7A086010080841E0081
:100E700000093D0040420F002DE9F84F0025DDF844
:100E80002890984617468A4604460095FFF72AFFA1
:100E9000064694F83D0020287AD11923012283497F
:100EA0002046009601F0BEFC0028F5D194F83C00E5
:100EB00001286DD0012084F83C0020680168C90732
:100EC00003D1016841F0010101602068016821F44B
:100ED00000610160222084F83D00102084F83E006B
:100EE00025646762A4F82A80608D20857048E062DE
:100EF00033464A465146204601F0D8FA00287DD1B3
:100F0000208DDFF8B081202768B1012814D0022895
:100F1000206801681ED041F4806101602068416949
:100F200080690090B5E0206841698169009101689D
:100F300041F400710160ACE02068016821F4806137
:100F4000016072B62068416981690091016841F4CD
:100F500000710AE041F40061016072B620684169E5
:100F600081690091016821F48061016062B690E0BE
:100F7000032868D801280CD002284B464FF0000205
:100F80004146204600960FD001F04CFCB0BB10E06B
:100F90008AE032464946204601F0C3FC70BB206817
:100FA0000069616A08706BE001F03CFC30BB72B60E
:100FB00034E02068016821F48061016072B6206825
:100FC0000069616A0870606A401C6062208D401E82
:100FD0002085608D401E6085374846F2A811006864
:100FE000B0FBF1F0C0EBC00000EB80000090401EB1
:100FF000009008D020684069C04300E029E0400725
:101000000CD50098F3E744F8305F6773A573206947
:1010100040F02000206162B625731AE02068016864
:1010200041F40071016020680069616A0870606ABB
:10103000401C6062218D491E2185618D491E61859C
:1010400062B621681AE032464946204601F069FC42
:1010500010B10120BDE8F88F20680069616A08704E
:10106000606A401C6062218D491E2185618D491E88
:10107000618521684A69D24352070AD4096901701F
:10108000606A401C6062208D401E2085608D401E7D
:101090006085208D00287FF46BAF84F83D7084F864
:1010A0003E5084F83C50D5E70220D3E70200100000
:1010B0000000FFFF040001008C0000202DE9F84F24
:1010C0001F4690468A460446DDF82890FFF70AFE40
:1010D000054694F83D0020287FD11923012240497C
:1010E0002046009501F09EFB002876D194F83C0044
:1010F000012872D0012084F83C0020680168C907EB
:1011000003D1016841F0010101602068016821F408
:1011100000610160212084F83D00102084F83E0029
:1011200000262664C4F824806785608D20852D48BC
:10113000E0622B464A465146204601F02DFA90B90E
:10114000206841698069009036E02A464946204679
:1011500001F01AFC50B1206C042804D12068016809
:1011600041F4007101600120BDE8F88F606A2168D8
:1011700000780861606A401C6062618D491E61856B
:10118000218D491E89B2218522685369DB435B07A3
:101190000BD451B100781061606A401C6062608DB0
:1011A000401E6085208D401E20852A4649462046E7
:1011B00001F012FB0028CED1208D0028C5D154F8B3
:1011C0003D0B016841F400710160202004F81E0904
:1011D000E67766770020C7E7FFE70220C4E7000054
:1011E000020010000000FFFF2DE9FF4F83B0002533
:1011F000DDE910799A4693460446DDF8488000956B
:10120000FFF770FD064694F83D0020287CD1192395
:10121000012285492046009601F004FB0028F5D103
:1012200094F83C0001286FD0012084F83C0020682D
:101230000168C90703D1016841F00101016020681C
:10124000016821F400610160222084F83D00402003
:1012500084F83E0025646762A4F82A90608D20859A
:101260007248E062CDE9008653465A46204604990A
:1012700001F0E0F900287DD1208DDFF8B49120271E
:1012800068B1012814D00228206801681ED041F4FA
:10129000806101602068416980690090B6E0206843
:1012A000416981690091016841F400710160ADE01C
:1012B0002068016821F48061016072B6206841698C
:1012C00081690091016841F400710AE041F4006114
:1012D000016072B62068416981690091016821F45A
:1012E0008061016062B691E0032868D801280CD0C3
:1012F000022843464FF000024946204600960FD090
:1013000001F090FAB0BB10E08BE032464146204637
:1013100001F007FB70BB20680069616A08706CE02F
:1013200001F080FA30BB72B634E02068016821F425
:101330008061016072B620680069616A0870606A45
:10134000401C6062208D401E2085608D401E60859F
:10135000384846F2A8110068B0FBF1F0C0EBC000BD
:1013600000EB80000090401E009008D0206840698B
:10137000C04300E029E040070CD50098F3E744F8AB
:10138000305F6773A573206940F02000206162B66A
:1013900025731AE02068016841F40071016020683B
:1013A0000069616A0870606A401C6062218D491E94
:1013B0002185618D491E618562B621681BE0324638
:1013C0004146204601F0ADFA18B1012007B0BDE852
:1013D000F08F20680069616A0870606A401C606272
:1013E000218D491E2185618D491E618521684A69CB
:1013F000D24352070AD409690170606A401C6062D6
:10140000208D401E2085608D401E6085208D002827
:101410007FF46AAF84F83D7084F83E5084F83C5005
:10142000D4E70220D2E70000020010000000FFFF16
:10143000040001008C0000202DE9FF4F83B09A4684
:10144000DDE9119793460446DDF84080FFF74AFC3A
:10145000054694F83D0020287FD1192301224049F8
:101460002046009501F0DEF9002876D194F83C0082
:10147000012872D0012084F83C0020680168C90767
:1014800003D1016841F0010101602068016821F485
:1014900000610160212084F83D00402084F83E0076
:1014A00000262664C4F82480A4F82A90608D208544
:1014B0002C48E062CDE9007553465A46204604990F
:1014C00001F036F970B930E02A463946204601F07D
:1014D0005BFA58B1206C042804D12068016841F4FB
:1014E00000710160012007B0BDE8F08F606A2168DB
:1014F00000780861606A401C6062218D491E89B2D3
:101500002185628D521E628522685369DB435B0729
:101510000BD469B100781061606A401C6062208D54
:10152000401E2085608D401E6085208D0028CBD117
:101530002A463946204601F04FF90028CAD154F80E
:101540003D0B016841F400710160202004F81E0980
:10155000E67766770020C6E7FFE70220C3E70000D2
:10156000020010000000FFFF10B586B000210091BE
:1015700001910291039100680F4988421AD10F4CE2
:10158000A06940F00800A061A069694600F0080069
:101590000490C0200090122001900320039008487E
:1015A000FFF7B0FAE06940F40010E061E06900F490
:1015B0000010049006B010BD00540040001002401E
:1015C000000C014002488168027811448160704734
:1015D00080000020074810B5016841F0100101604B
:1015E000032000F075F8002000F006F800F024F861
:1015F000002010BD0020024070B50D4D04464FF490
:101600007A712878B1FBF0F00A490968B1FBF0F073
:1016100000F062FB48B9102C07D200222146501E70
:1016200000F036F800206C6070BD012070BD000035
:10163000800000208C0000200C4808B5816941F032
:1016400001018161816901F001010091C16941F0ED
:101650008051C161C06900F0805000900448416829
:1016600021F0E06141F00071416008BD00100240CE
:1016700000000140002809DB00F01F020121914019
:101680004009800000F1E020C0F800117047000020
:10169000F0B40E4B1B680C46C3F30223C3F10705DD
:1016A000042D00D90425191D072901D2002300E0CB
:1016B000DB1E012606FA05F1491E214099409E4095
:1016C000761E16403143F0BC01F0BDBC0CED00E0CD
:1016D000064900F0070208684FF6FF03184040EA89
:1016E0000220034A10430860704700000CED00E040
:1016F0000000FA052DE9F84305460078354CC0078F
:1017000054D0E0690026C00008D4E06940F0805061
:10171000E061E069012600F0805000902E480168E9
:10172000C90512D40168804641F480710160FFF759
:10173000D9FA074605E000BFFFF7D4FAC01B6428BA
:1017400023D8D8F80000C005F6D5206A10F4407000
:1017500021D0A98801F4407181421CD0206A1F4920
:10176000012220F440700A6000220A602062C00753
:1017700011D0FFF7B7FA074641F2883808E000BFFA
:10178000FFF7B0FAC11B414502D90320BDE8F88339
:10179000206A8007F4D5206A696820F44070084305
:1017A00020621EB1E06920F08050E0612878800757
:1017B00005D56068A96820F4404008436060287837
:1017C000C00605D56068E96820F4800008436060C1
:1017D0000020DBE70010024000700040400442425D
:1017E0002DE9F0470F46050061D0434E306800F008
:1017F0000700B84209D2306820F007003843306053
:10180000306800F00700B84251D128683B4C81078E
:1018100012D5400703D5606840F4E0606060287826
:10182000000703D5606840F4605060606068A96894
:1018300020F0F000084360602878C00728D068686E
:10184000012810D02168022810D0890700292EDA3B
:10185000616821F0030101436160FFF743FA8046AC
:1018600041F288390DE021688903EFE78901EDE74E
:10187000FFF738FAA0EB0801494502D90320BDE87B
:10188000F0876068696800F00C00B0EB810FEFD161
:10189000306800F00700B8420BD9306820F007002C
:1018A00038433060306800F00700B84201D00120B2
:1018B000E5E72878400705D56068E96820F4E0602E
:1018C000084360602878000706D56068296920F41D
:1018D000605040EAC100606000F038F86168084A72
:1018E000C1F30311515CC84006490860064800680E
:1018F000FFF782FE0020C2E70020024000100240F5
:10190000843700088C00002084000020044805492A
:1019100000684968044AC1F30221515CC84070471D
:101920008C0000200010024094370008044805494C
:1019300000684968044AC1F3C221515CC84070473D
:101940008C000020001002409437000812A185B0DE
:101950000FC98DE80F0014A0144A00680490516864
:10196000134801F00C03042B10D0082B0ED1C1F347
:101970008343C9031DF803000AD5516804AAC1F3C3
:101980004041515C0A4A5043B0FBF1F005B070474A
:1019900008494843FAE7000002030405060708095E
:1019A0000A0B0C0D0E0F1010010200000010024077
:1019B00000127A0000093D002DE9F84F040070D0B4
:1019C0002078C04DC00749D06868C0F38100012865
:1019D00007D06868C0F38100022809D16868C00395
:1019E00006D52868800339D560680028E7D035E03F
:1019F0006068B0F5803F0BD010B1B0F5A02F11D0CA
:101A0000286820F480302860286820F4802002E0D4
:101A1000286840F480302860606890B1FFF762F970
:101A200006460AE0286840F480202860F0E700BFFE
:101A3000FFF758F9801B642873D828688003F7D50E
:101A40000CE0FFF74FF9064605E000BFFFF74AF943
:101A5000801B6428F0D828688003F7D420789A4E39
:101A600080074FF001094FF0000839D5686810F081
:101A70000C0F07D06868C0F38100022809D168689C
:101A8000C00306D42868800714D52069012808D12E
:101A900010E02069B0B1C6F80090FFF723F90746BF
:101AA00005E00AE1FFF71EF9C01B0228C4D8286828
:101AB0008007F7D52868616920F0F80040EAC10086
:101AC00028600DE0C6F80080FFF70CF9074604E037
:101AD000FFF708F9C01B022823D828688007F7D42D
:101AE000207800072CD57948A169D9B1C0F80090B9
:101AF000FFF7F8F8074604E0FFF7F4F8C01B0228E8
:101B00000FD8686A8007F7D571484FF4FA5100681A
:101B1000B0FBF1F0009000BF0098411E0091FAD296
:101B20000EE080E0C0F80080FFF7DCF8074604E034
:101B3000FFF7D8F8C01B022875D8686A8007F7D469
:101B40002078400760D5E8690027C00008D4E8691C
:101B500040F08050E861E869012700F08050009073
:101B60005C480168C90513D40168834641F480715B
:101B70000160FFF7B7F8824606E000BFFFF7B2F852
:101B8000A0EB0A0064284ED8DBF80000C005F5D5AC
:101B9000E06801280AD008B1052813D0286A20F08F
:101BA00001002862286A20F0040002E0286A40F060
:101BB00001002862E06841F2883B98B1FFF792F893
:101BC00082460BE0286A40F004002862EEE700BF7E
:101BD000FFF788F8A0EB0A0159455AD8286A800710
:101BE000F6D50CE0FFF77EF8824605E0FFF77AF8BD
:101BF000A0EB0A0159454CD8286A8007F6D41FB1DA
:101C0000E86920F08050E861E06988B36968C1F351
:101C10008101022944D00228C6F8608004D0FFF771
:101C200061F8044638E034E0FFF75CF8074604E06A
:101C3000FFF758F8C01B02282BD828688001F7D47A
:101C4000206AB0F5803F05D16868A16820F40030B3
:101C500008436860D4E908010843696821F47411F5
:101C600008436860C6F86090FFF73CF8044606E059
:101C700025E000BFFFF736F8001B022809D82868C6
:101C80008001F7D51BE000BFFFF72CF8001B0228EE
:101C900002D90320BDE8F88F28688001F4D40EE053
:101CA0000128F7D06868226A00F48031914204D19B
:101CB000616A00F47010884201D00120EAE7002038
:101CC000E8E7000000100240000042428004424267
:101CD0008C0000200070004010B5401EB0F1807FE5
:101CE00001D3012010BD4FF0E02460610F21601787
:101CF00001F0A9F90020A06107202061002010BD9B
:101D00007047704770B590F83C20012A26D0012416
:101D100080F83C40022280F83D2003685A689D68A4
:101D200022F070060A6832435A600D4B02689A42EC
:101D300008D0B2F1804F05D00A4B9A4202D00A4B2C
:101D40009A4204D1496825F080031943916080F8D4
:101D50003D40002180F83C10084670BD022070BD57
:101D6000002C0140000400400008004090F83D10A5
:101D7000012901D001207047022180F83D1001683F
:101D8000CA6842F00102CA6000680B49884208D064
:101D9000B0F1804F05D00949884202D008498842F5
:101DA00004D1816801F00701062903D0016841F0E0
:101DB0000101016000207047002C01400004004038
:101DC00000080040704770B50446006801694FF094
:101DD0000005C943890715D4C168C943890711D4CF
:101DE000E91E016101202077206880698007204674
:101DF00002D0FFF7E7FF04E000F0BEF8204600F055
:101E00006BF9257720680169C943490717D4C16870
:101E1000C943490713D46FF0040101610220207700
:101E20002068806910F4407F204602D0FFF7CAFF87
:101E300004E000F0A1F8204600F04EF92577206874
:101E40000169C943090716D4C168C943090712D4F7
:101E50006FF008010161042020772068C0698007C5
:101E6000204602D0FFF7AEFF04E000F085F82046E0
:101E700000F032F9257720680169C943C90617D4F3
:101E8000C168C943C90613D46FF01001016108206D
:101E900020772068C06910F4407F204602D0FFF709
:101EA00091FF04E000F068F8204600F015F925776E
:101EB00020680169C943C90708D1C168C943C90776
:101EC00004D1891E0161204600F06AF92068016989
:101ED000C943090609D4C168C943090605D46FF08E
:101EE000800101612046FFF70BFF20680169C943AB
:101EF000490609D4C168C943490605D46FF04001B9
:101F00000161204600F04DF920680169C943890646
:101F10000BD4C168C943890607D46FF02001016161
:101F20002046BDE87040FFF7ECBE70BD00B585B03F
:101F30000021009101910291039100680B498842B0
:101F400011D10B48816941F00401816180696946C2
:101F500000F00400049040200090022001900390C3
:101F60000448FEF7CFFD05B000BD000000040040AE
:101F70000010024000080140704770B5044690F818
:101F80003C000D4601280AD0012084F83C0042B1F3
:101F9000042A18D0082A2AD00C2A4DD139E0022070
:101FA00070BD206800F0E0FE2068816941F0080102
:101FB00081612068816921F0040181612068816963
:101FC0002A69114311E0206800F0F6FE206881695B
:101FD00041F4006181612068816921F4806181613F
:101FE000206881692A6941EA0221816124E0206830
:101FF00000F00EFF2068C16941F00801C16120684E
:10200000C16921F00401C1612068C1692A691143D5
:1020100011E0206800F028FF2068C16941F40061E8
:10202000C1612068C16921F48061C1612068C16912
:102030002A6941EA0221C161002084F83C0070BD98
:1020400010B5040003D094F83D0010B107E0012062
:1020500010BD002084F83C00204600F01FF802204C
:1020600084F83D00211D206800F03AFE012084F82C
:10207000460084F83E0084F83F0084F8400084F86D
:10208000410084F8420084F8430084F8440084F856
:10209000450084F83D00002010BD000008B5006830
:1020A0000B49884212D10B48C16941F00201C1615C
:1020B000C069002200F00200009011461D20FFF7C9
:1020C000E7FABDE808401D20FFF7D4BA08BD0000BC
:1020D00000040040001002407047000010B50446A4
:1020E000022249B1042912D008291CD094F84100D9
:1020F000012823D0012010BD94F83E000128F9D119
:1021000084F83E202068C26842F0020209E094F898
:102110003F000128EED184F83F202068C26842F0D9
:102120000402C2600EE094F840000128E2D184F875
:1021300040202068C26842F00802F2E784F841209B
:102140000C2922D00122206800F000FE11492068ED
:10215000884203D1426C42F40042426420688842C3
:1021600008D0B0F1804F05D00B49884202D00B490E
:10217000884204D1816801F00701062903D0016873
:1021800041F001010160002010BD2068C26842F0EA
:102190001002C6E7002C0140000400400008004087
:1021A000704770477047000070B5026804461068B9
:1021B000D168536910F00F0F52D003F0010501F4FC
:1021C00090762E435FD0C20705D0CA0503D5E26BD7
:1021D00042F00102E263420705D5DA0703D0E26B61
:1021E00042F00202E263820705D5DA0703D0E26B10
:1021F00042F00402E263020707D501F020022A43FD
:1022000003D0E26B42F00802E263E26B002A33D0B3
:10221000800604D5880602D5204600F05DFE2068C1
:102220004069E16BC0F38010090700D428B3204651
:1022300000F044FE2068416949061AD5416921F041
:1022400040014161606BA0B12D494163606BFEF7B5
:10225000FBFB002810D0606B416BBDE87040084765
:10226000830610D58B060ED52046BDE8704000F0E1
:1022700033BE2046FFF796FF70BD2046FFF792FF62
:102280000020E06370BD03062BD50B0629D594F81A
:1022900039002128F6D1A068B0F5805F01D120690E
:1022A000B0B1206A411C2162216800784860E08C4E
:1022B000401E0004000CE084E4D12068C16821F0D5
:1022C0008001C1602068C16841F04001C16070BDFB
:1022D000206A0088C0F308005060206A801C2062D9
:1022E000E5E74006F3D54806F1D5D168204621F050
:1022F0004001D160202184F8391000F0BEF870BD93
:10230000AD2E000870B5040004D094F83900002503
:1023100010B106E0012070BD84F83850204600F06E
:1023200023F8242084F839002068C16821F4005182
:10233000C160204600F016FE2068016921F490413A
:1023400001612068416921F02A0141612068C1686A
:1023500041F40051C160E563202084F8390084F81D
:102360003A00002070BD000030B585B00024009414
:102370000194029403940068184988422BD11848AC
:10238000C16941F40031C161C16901F400310491B6
:10239000816941F0040181618069124D00F00400FF
:1023A00004900420009002200190032003906946CD
:1023B0002846FEF7A7FB0820CDE900046946284619
:1023C0000294FEF79FFB002211462620FFF760F9DA
:1023D0002620FFF74FF905B030BD00000044004053
:1023E000001002400008014090F83A30202B22D122
:1023F000F9B1F2B190F83830012B1CD0816282859E
:10240000C2850021C163222280F83A2080F838106A
:102410000168CA6842F48072CA6001684A6942F081
:1024200001024A610068C16841F02001C1600020DA
:1024300070470120704702207047704790F839308C
:10244000202B18D1A9B1A2B190F83830012B12D0AD
:1024500001628284C2840021C163212280F8392074
:1024600080F838100068C16841F08001C160002028
:10247000704701207047022070477047FEE70168EF
:102480004A69D24352050FD46FF480624A61002139
:1024900040F8301F202242738173026942F0040227
:1024A0000261017301207047002070472DE9F84F49
:1024B0000446C06A1E4693460D4621680A6842F4E7
:1024C00080620A60082807D0012805D010F5803FF7
:1024D00002D0206B112804D12068016841F480717A
:1024E00001604FF001195B460022494620460096E4
:1024F00000F098F94FF4007840B120680068C005FA
:1025000001D5C4F840800320BDE8F88F2069DFF8CA
:1025100084A0B0F5804F0FD00620216800EAD517BF
:1025200047F0F000086133465A460AF1060120469A
:1025300000F0ACF958BB03E0E8B240F001001CE049
:102540002168E8B2086133465A465146204600F0F9
:102550009DF9E0B92068416981690091016841F401
:10256000807101605B46002249462046009600F0DB
:1025700059F90028C1D147F0F100216808613346BC
:102580005A465146204600F081F90028BCD001206F
:10259000BAE7000002000100F8B50446C06A1E4612
:1025A0000D461746082807D0012805D010F5803FB2
:1025B00002D0206B122804D12068016841F4807198
:1025C0000160134600224FF001112046009600F0F2
:1025D00029F940B120680068C00502D54FF40070A9
:1025E00020640320F8BD2069B0F5804F0ED006208E
:1025F000216800EAD51040F0F000086133463A4601
:102600000B49204600F042F978B902E005F0FE00DF
:1026100000E0E8B221680861054933463A46891F5F
:10262000204600F033F90028DCD00120F8BD00007E
:10263000080001002DE9F84F0446006889460B9D0B
:1026400001689846174641F480610160206801687E
:1026500041F48071016000954FF0011B0022594642
:1026600020460A9B00F0DEF84FF4007A40B1206863
:102670000068C00501D5C4F840A00320BDE8F88F6C
:10268000216809F0FE0008612B46284920460A9A75
:1026900000F0FCF8F0BB20684169806900902A4690
:1026A00020460A9900F070F940B1206C04283AD114
:1026B0002068016841F40071016034E0FEB2B8F1B5
:1026C000010F09D02168380A08612A4620460A9974
:1026D00000F05AF90028E8D1206806612A46204611
:1026E0000A9900F051F90028DFD12068016841F40F
:1026F0008071016000950022594620460A9B00F037
:1027000091F80028B3D1216809F0FF0040F00100E2
:10271000086100E007E02B46044920460A9A00F0D1
:10272000B5F80028AAD00120A8E7000002000100A7
:102730002DE9F843044600680D46DDE90897016875
:102740009846164641F4807101604B4600224FF0D6
:1027500001112046009700F065F848B12068006834
:10276000C00502D54FF4007020640320BDE8F88353
:10277000216805F0FE0008613B464A46154920469F
:1027800000F084F888B920684169806900903A4671
:102790004946204600F0F8F848B1206C042804D1DE
:1027A0002068016841F4007101600120DEE7F5B2A4
:1027B000B8F1010F09D02168300A08613A4649464C
:1027C000204600F0E1F80028E7D1206805610020EC
:1027D000CCE700000200010070B516460D46044625
:1027E0000DE02046FFF74BFE08B1012070BD681CCC
:1027F00005D0FEF777FA801BA84207D835B12068CC
:102800004069C0434007ECD4002070BD002044F86C
:10281000300F20216173A073216941F020012161F3
:102820002073E2E72DE9F0471E4690460D46044628
:10283000C1F30747DDF8209008E0701C06D0FEF7D2
:1028400051FAA0EB0900B0420FD876B12068012FF1
:1028500018D0806925EA00000004000C14D0002183
:102860004145EAD00020BDE8F087002044F8300F51
:1028700020216173A073216941F02001216120733F
:102880000120F0E74069E5E70121E9E72DE9F0479C
:102890009A4691460E46044600254FF02008C1F3A3
:1028A000074725E020684069C043400514D42068EC
:1028B000016841F40071016021686FF48060486133
:1028C000256384F83D8084F83E50206C40F004007D
:1028D000206484F83C501FE0B9F1FF3F08D0FEF7B8
:1028E00001FAA0EB0A0149450CD8B9F1000F09D053
:1028F0002068012F13D0806926EA00000004000C34
:102900000BD0CFE744F8305F84F80D80A5732069C1
:1029100040F02000206125730120BDE8F087406968
:10292000EAE72DE9F041002590460E4604462027AF
:1029300017E04069C043C0060CD454F8301B6FF058
:102940001000486144F810596777A577206A206223
:10295000257717E0FEF7C6F9A0EB0800B04208D8CB
:102960003EB120684169C9434906E2D40020BDE870
:10297000F08144F8305F6773A573206940F0200050
:10298000206125730120F2E770B516460D46044616
:102990000DE02046FFF773FD08B1012070BD681CF3
:1029A00005D0FEF79FF9801BA84207D835B12068F3
:1029B0004069C0430006ECD4002070BD002044F8FC
:1029C000300F20216173A073216941F02001216142
:1029D0002073E2E7F0B585B0012504A8CDE9000534
:1029E0004FF47A742B467522D02102941948FEF7D1
:1029F000FBFB002703AE8DF80C700096CDE9015467
:102A000001236B22D0211348FEF716FD07208DF815
:102A10000C000096CDE9015401231922D0210D4864
:102A2000FEF70AFD8DF80C700096CDE901540123E4
:102A30001C22D0210748FEF7FFFC8DF80C70009691
:102A4000CDE9015401231B22D0210248FEF7F4FCFA
:102A500005B0F0BDC000002070B586B04FF47A72AA
:102A6000062103A88DE8070001233B22D0211B4843
:102A7000FEF7BAFBBDF80C00194940BA00B2088055
:102A8000BDF80E1049BA0DB216490D80BDF81010F0
:102A900049BA0CB214490C80FDF72CFC6FF00D06FE
:102AA0003246FDF710FCFDF770FC1049086028461F
:102AB000FDF720FC3246FDF706FCFDF766FC0C49ED
:102AC00008602046FDF716FC3246FDF7FCFBFDF7DB
:102AD0005CFC0849086006B070BD0000C000002022
:102AE0000400002006000020080000202C00002028
:102AF00030000020340000203EB500211148009134
:102B000001910F4A029102608160017301750124F5
:102B10004FF460220461C2614160FDF771FE08B1AB
:102B200072B6FEE707200094CDE9014069460548EA
:102B3000FDF770FD002801D072B6FEE73EBD000033
:102B4000002401409000002010B58AB000240794B2
:102B50001C2168460894FDF7FEFA174815490160E4
:102B600043F67F61C0E901140911C0E903148461CF
:102B7000FFF766FA08B172B6FEE7079407A90E4898
:102B80000894FFF7BFF808B172B6FEE76020009026
:102B90004FF4FA70CDE90104002269460648049416
:102BA000FFF7EBF908B172B6FEE70348FFF7BEF98D
:102BB0000AB010BD0004004014010020FEE7FEE74B
:102BC00070477047FEF7FEBC30B593B028216846C9
:102BD000FDF7C1FA14210AA8FDF7BDFA002401206F
:102BE0000F940225049000951020119405901094E4
:102BF000129407946846FEF7DFFE08B172B6FEE74E
:102C00000F20CDE90A040C940D9400210AA80E941B
:102C1000FEF7E6FD08B172B6FEE70FA80F95119416
:102C2000FEF768FD002801D072B6FEE713B030BD94
:102C30007047000070B5214C0025206902280BD098
:102C4000401C20616069062827D0401C6061BDE8F7
:102C500070401B48FFF7B7B8FFF7FEFE1A48194E41
:102C600031460068FDF78BFAFDF762FB20601748DC
:102C700031460068FDF783FAFDF75AFB606014489F
:102C800031460068FDF77BFAFDF752FBA06000F0CB
:102C9000F9FC01202561A061D4E7A0890D4982B229
:102CA0000D48FFF7CBFB0D490020401C8842FCDBA0
:102CB0000848E56005706561C9E700004C00002028
:102CC000140100200000C8422C0000203000002029
:102CD00034000020780200205C01002040420F00F8
:102CE000F0B50268164B174C174D4FF080479842CD
:102CF00005D0B84203D0A04201D0A84203D122F0AF
:102D000070064A683243984205D0B84203D0A042C8
:102D100001D0A84203D122F44074CA6822434C690E
:102D200022F08002224302608A68C2620A688262DC
:102D3000984201D10969016301214161F0BD0000A0
:102D4000002C0140000400400008004010B501F0D4
:102D50001F030121046A99408C430462016A9A406E
:102D60001143016210BD000030B5026A22F0010279
:102D70000262026A4368846924F073050C682C437C
:102D800022F002058A682A430A4DA8420BD122F09C
:102D90000805CA6823F440732A434D6922F00402EF
:102DA0001D438B692B434360846149684163026220
:102DB00030BD0000002C014030B5026A22F0100244
:102DC0000262026A436884690D6824F4E64444EAB6
:102DD00005248D6822F0200242EA05120B4DA8421C
:102DE0000ED1CD6822F0800242EA05124D6923F42B
:102DF000406343EA85038D6922F0400243EA85037C
:102E00004360846149688163026230BD002C0140E7
:102E100030B5026A22F480720262036A4268C469B1
:102E200023F4007324F073050C682C438D6843EA87
:102E300005230C4DA8420ED1CD6823F4006343EA6C
:102E400005234D6922F4405242EA05128D6923F4AC
:102E5000806342EA05124260C4614968C16303624B
:102E600030BD0000002C014030B5026A22F48052CF
:102E70000262046A4268C3690D6823F4E64343EAC8
:102E800005238D6824F4005444EA0534064DA84215
:102E900004D14D6922F4804242EA85124260C36146
:102EA00049680164046230BD002C014010B5406ADD
:102EB0000021C185C184FFF775F910BD0168CA689A
:102EC00022F49072CA6001684A6922F001024A61E4
:102ED000202180F83A10704710B590F83A10222956
:102EE00001D0022010BD82684FF480539A4201D174
:102EF000016921B1816A9A421BD04AB10AE0026895
:102F0000816A5268C2F308020A80816A891C08E05B
:102F1000026972B10268526802F07F020A70816A27
:102F2000491C8162C18D491E0904090CC18503D069
:102F300016E002685268F1E70168CA6822F02002D0
:102F4000CA600168CA6822F48072CA6001684A696E
:102F500022F001024A61202180F83A10FFF76DFA51
:102F6000002010BD70B5044600680169E26821F4D4
:102F70004051114301612169A06808436169084318
:102F80002168CA6841F20C639A430243CA60206810
:102F90004169A26921F44071114341611E492068D1
:102FA000884202D1FEF7C2FC01E0FEF7AFFC00EB65
:102FB000C00101EB0012606864218000B2FBF0F3F5
:102FC000B3FBF1F36FF018067343B2FBF0F5B2FBFD
:102FD000F0F605EB8305322303EB0515B5FBF1F5A0
:102FE000B6FBF1F605F0F00505EB0615B2FBF0F6C1
:102FF000B2FBF0F0B0FBF1F06FF01802504306EBBB
:10300000800003EB0010B0FBF1F0216800F00F002E
:103010002844886070BD00000038014010B532229D
:1030200006490748FFF7E0F90548FFF7BDF80448EF
:103030000068C16841F02001C16010BDCE010020D0
:103040005C010020FEE70907090E002804DB00F1FF
:10305000E02080F80014704700F00F0000F1E0203D
:1030600080F8141D704702E008C8121F08C1002A2A
:10307000FAD170477047002001E001C1121F002AF9
:10308000FBD170472DE9F043174D99B08846814632
:1030900000244FF47A764FF40047242101A8FDF76D
:1030A0005AF8200A8DF804008DF80540422301AA41
:1030B000414648460096FEF701F828700A20FDF7C1
:1030C0000FFD4034A4B2BC42E7D334210BA8FDF776
:1030D00042F8287808B105A100E00BA10BA8FDF784
:1030E00045F819B0BDE8F08348000020455241532F
:1030F0004520454550524F4D204572726F72204910
:1031000032432D54580D0A00455241534520454540
:1031100050524F4D2053756363657373204932439A
:103120002D54580D0A000000F0B58FB0064600205F
:103130000E90100A8DF838000D468DF83920342194
:1031400001A8FDF708F84FF0FF3702230EAA294621
:1031500030460097FDF7B2FF0E4C20700A20FDF7B5
:10316000BFFC207808B10CA10DE001230EAA29466E
:1031700030460097FDF780FE20700A20FDF7B0FC76
:10318000207818B10BA101A8FCF7F0FF9DF83800DA
:103190000FB0F0BD48000020454550524F4D205221
:1031A000656164204572726F72204932432D545814
:1031B0000D0A0000454550524F4D20526561642074
:1031C0004572726F72204932432D52580D0A000029
:1031D00030B58FB0054600200E90100A8DF83800EB
:1031E0000C468DF839208DF83A30342101A8FCF7CF
:1031F000B2FF4FF47A70009003230EAA21462846AE
:10320000FDF75CFF074C20700A20FDF769FC207871
:1032100008B105A100E00BA101A8FCF7A7FF0FB0C2
:1032200030BD000048000020454550524F4D20570A
:1032300072697465204572726F72204932432D5451
:10324000580D0A00454550524F4D2057726974651C
:103250002053756363657373204932432D54580DB1
:103260000A0000002DE9F04395B0984600251C9B0C
:10327000364E89462C462B2B06D02D2B0ED02F2BCD
:1032800016D02A2B20D029E0114600F06FF807460F
:103290004146484600F06AF8384413E0114600F011
:1032A00065F807464146484600F060F8381A09E0DC
:1032B000114600F05BF807464146484600F056F8D4
:1032C00097FBF0F0B06209E0114600F04FF80746B6
:1032D0004146484600F04AF84743B762B06A1C4985
:1032E000002809D00DDA4FF02D020A55C0F1000078
:1032F00004F10104B06204E04FF000004FF001045B
:103300000870B06A4FF00A026B4650B190FBF2F7BA
:1033100002FB170790FBF2F043F8257005F1010559
:10332000F3E7B0626D1E05D413F825003030085560
:10333000641CF7E70A550649641CA2B2A1F5847023
:10334000FFF77CF815B0BDE8F08300000000002016
:103350006402002003460120002203E000EB80000D
:103360004000521C9A42F9DB48437047F0B50025F3
:103370000E4607462C4607E0395D301B401E3039AB
:10338000FFF7E8FF0544641CB442F5DB2846F0BDB6
:1033900030B50849064C00238A694D6AA05CAA42F0
:1033A000A35401DB8B6130BD521C8A6130BD00002B
:1033B000CE010020000000209EB0FEF70BF9FFF7C1
:1033C00003FC7648816941F004018161816901F063
:1033D00004010091816941F008018161806900F078
:1033E00008000090FFF7B0FBFFF786FB6D486C49C3
:1033F000002501606C49C0E901154FF48041C0E926
:10340000035145618561C5610562FDF771FC08B135
:1034100072B6FEE7634C65489C340C2120604FF483
:103420001650C4E90105E560C4E90451A561A84648
:103430002046E561FEF766FF08B172B6FEE759481F
:1034400000215430FEF74AFE2068C16841F0200197
:10345000C16054485430FEF789FCFFF7BBFADFF82F
:1034600050A1DFF85091544C4FF00A0B4D483038C2
:10347000FDF78AFA6420FDF733FB4A483038FDF740
:1034800048F92082DAF80000022807D14B4D28685D
:10349000012803D100F04CF9C5F80080A0694D4621
:1034A00019F80000522806D03E28DFD1FFF770FF40
:1034B000404E32364AE000273D463E4626E0BAB24C
:1034C000A0213848FFF730FE20706946584609E0D1
:1034D000B2FBF0F300FB1323B2FBF0F241F825300E
:1034E00022706D1C2278002AF2D16D1E08D414A817
:1034F00011F82520303282556D1E06F10106F7D5F0
:1035000014A8232181550025761C7F1C6069874201
:10351000D5DB14A9274801F806B0761CB2B2723880
:10352000FEF78CFF3220FDF7DBFA8DF85080A021EA
:103530001C48C4F81480FFF7A5FDFFF729FF95E7A5
:10354000E1697054491CE161FFF722FFA069285C22
:10355000A0F130010A29F3D3A069285C6070FFF75D
:1035600017FF144E643605E0206A3154401C206277
:10357000FFF70EFFA069295C0029F5D16078009063
:103580000C49D4E907236431A1F13200FFF76AFE48
:10359000C4F81C80C4F8208068E7000000100240D6
:1035A00000540040C0000020A086010000440040FC
:1035B0005C000020CE0100200000002064000020FC
:1035C00030B51449144B0A250C6B0A6A09E000BF98
:1035D000B0FBF5F405FB1404B0FBF5F043F8224012
:1035E000521C0028F4D10A62521EC1E90B240CD4EB
:1035F000094DD1F80C00B43D13F8224030342C545E
:10360000401C521EF8D5CA62C86000200862C86219
:10361000086330BD4C0000202C03002070B5174B10
:103620001749002805DACA682D249C54521C4042D0
:10363000CA60124C0A268D6ACA69643448B190FB8C
:10364000F6F506FB150590FBF6F044F82250521CE7
:10365000F4E7CA61521EC1E909250AD4D1F80C0069
:1036600014F8225030351D54401C521EF8D54A62C1
:10367000C8600020C8618862486270BD780200207E
:103680004C0000202DE9F041274D264C4FF0230837
:10369000E86878213D2604F80080401C2154401C35
:1036A0002654401CE8602868FFF7B8FFE8682C271C
:1036B00079212754401C2154401C2654401CE860AA
:1036C0006868FFF7ABFFE8687A212754401C215453
:1036D000401C2654401CE860A868FFF79FFFE8687C
:1036E0002A27612104F80080401C2754401C2154E3
:1036F000401C64212154401C63212154401C265449
:10370000401CE86009480088FFF75AFFE8682D214F
:103710002754401C2154401C0A212154401CE860BD
:10372000BDE8F081780200204C000020100000204D
:1037300010B5114C208AFCF7EEFD00220F4BFCF770
:1037400050FDFCF722FE6064FCF70BFEC3B2A370D1
:10375000A08AA02182B20A48FFF73AFDA08AA021E0
:1037600082B20748FFF7E0FC054A6169DC32505439
:10377000491C616110BD00000000002000E0AF3F67
:10378000C00000200000000000000000010203044F
:10379000060708090000000001020304BC37000806
:1037A0000000002090000000663000084C3800083F
:1037B00090000020F00600007630000800000000B5
:1037C00000000000000000000000000000000000F9
:1037D00000000000000000000000000000000000E9
:1037E00031000000000000000000000000000000A8
:1037F00000000000000000000000000000000000C9
:1038000000000000000000000000000000000000B8
:1038100000000000000000000000000000000000A8
:103820000000000000000000000000000000000098
:103830000000000000000000000000000100000087
:0C38400010000000000000000024F40054
:04000005080000ED02
:00000001FF
